{
  "_format": "hh-sol-artifact-1",
  "contractName": "NFT_Worker",
  "sourceName": "contracts/NFTMarketplace.sol",
  "abi": [
    {
      "inputs": [],
      "name": "getContractName",
      "outputs": [
        {
          "internalType": "string",
          "name": "",
          "type": "string"
        }
      ],
      "stateMutability": "pure",
      "type": "function"
    }
  ],
  "bytecode": "0x608060405234801561001057600080fd5b5060c98061001f6000396000f3fe6080604052348015600f57600080fd5b506004361060285760003560e01c8063f5f5ba7214602d575b600080fd5b6060604051603a91906043565b60405180910390f35b6000602080835283518082850152825b81811015606d578581018301518582016040015282016053565b81811115607d5783604083870101525b50601f01601f191692909201604001939250505056fea2646970667358221220f0059b249c88dc42d6489d539b3fef74a9fedee818de710e6fbdd9461809c9ba64736f6c63430008040033",
  "linkReferences": {},
  "deployedLinkReferences": {}
}