{
  "_format": "hh-sol-artifact-1",
  "contractName": "NFTMarketplace",
  "sourceName": "contracts/NFTMarketplace.sol",
  "abi": [
    {
      "inputs": [],
      "stateMutability": "nonpayable",
      "type": "constructor"
    },
    {
      "anonymous": false,
      "inputs": [
        {
          "indexed": true,
          "internalType": "address",
          "name": "owner",
          "type": "address"
        },
        {
          "indexed": true,
          "internalType": "address",
          "name": "approved",
          "type": "address"
        },
        {
          "indexed": true,
          "internalType": "uint256",
          "name": "tokenId",
          "type": "uint256"
        }
      ],
      "name": "Approval",
      "type": "event"
    },
    {
      "anonymous": false,
      "inputs": [
        {
          "indexed": true,
          "internalType": "address",
          "name": "owner",
          "type": "address"
        },
        {
          "indexed": true,
          "internalType": "address",
          "name": "operator",
          "type": "address"
        },
        {
          "indexed": false,
          "internalType": "bool",
          "name": "approved",
          "type": "bool"
        }
      ],
      "name": "ApprovalForAll",
      "type": "event"
    },
    {
      "anonymous": false,
      "inputs": [
        {
          "indexed": false,
          "internalType": "uint256",
          "name": "_fromTokenId",
          "type": "uint256"
        },
        {
          "indexed": false,
          "internalType": "uint256",
          "name": "_toTokenId",
          "type": "uint256"
        }
      ],
      "name": "BatchMetadataUpdate",
      "type": "event"
    },
    {
      "anonymous": false,
      "inputs": [
        {
          "indexed": false,
          "internalType": "uint256",
          "name": "_tokenId",
          "type": "uint256"
        }
      ],
      "name": "MetadataUpdate",
      "type": "event"
    },
    {
      "anonymous": false,
      "inputs": [
        {
          "indexed": true,
          "internalType": "uint256",
          "name": "tokenId",
          "type": "uint256"
        },
        {
          "indexed": false,
          "internalType": "address",
          "name": "owner",
          "type": "address"
        },
        {
          "indexed": false,
          "internalType": "address",
          "name": "seller",
          "type": "address"
        },
        {
          "indexed": false,
          "internalType": "uint256",
          "name": "price",
          "type": "uint256"
        },
        {
          "indexed": false,
          "internalType": "bool",
          "name": "currentlyListed",
          "type": "bool"
        }
      ],
      "name": "TokenListedSuccess",
      "type": "event"
    },
    {
      "anonymous": false,
      "inputs": [
        {
          "indexed": true,
          "internalType": "address",
          "name": "from",
          "type": "address"
        },
        {
          "indexed": true,
          "internalType": "address",
          "name": "to",
          "type": "address"
        },
        {
          "indexed": true,
          "internalType": "uint256",
          "name": "tokenId",
          "type": "uint256"
        }
      ],
      "name": "Transfer",
      "type": "event"
    },
    {
      "inputs": [
        {
          "internalType": "address",
          "name": "to",
          "type": "address"
        },
        {
          "internalType": "uint256",
          "name": "tokenId",
          "type": "uint256"
        }
      ],
      "name": "approve",
      "outputs": [],
      "stateMutability": "nonpayable",
      "type": "function"
    },
    {
      "inputs": [
        {
          "internalType": "address",
          "name": "owner",
          "type": "address"
        }
      ],
      "name": "balanceOf",
      "outputs": [
        {
          "internalType": "uint256",
          "name": "",
          "type": "uint256"
        }
      ],
      "stateMutability": "view",
      "type": "function"
    },
    {
      "inputs": [
        {
          "internalType": "string",
          "name": "tokenURI",
          "type": "string"
        },
        {
          "internalType": "uint256",
          "name": "price",
          "type": "uint256"
        }
      ],
      "name": "createToken",
      "outputs": [
        {
          "internalType": "uint256",
          "name": "",
          "type": "uint256"
        }
      ],
      "stateMutability": "payable",
      "type": "function"
    },
    {
      "inputs": [
        {
          "internalType": "uint256",
          "name": "tokenId",
          "type": "uint256"
        }
      ],
      "name": "executeSale",
      "outputs": [],
      "stateMutability": "payable",
      "type": "function"
    },
    {
      "inputs": [],
      "name": "getAllNFTs",
      "outputs": [
        {
          "components": [
            {
              "internalType": "uint256",
              "name": "tokenId",
              "type": "uint256"
            },
            {
              "internalType": "address payable",
              "name": "owner",
              "type": "address"
            },
            {
              "internalType": "address payable",
              "name": "seller",
              "type": "address"
            },
            {
              "internalType": "uint256",
              "name": "price",
              "type": "uint256"
            },
            {
              "internalType": "bool",
              "name": "currentlyListed",
              "type": "bool"
            }
          ],
          "internalType": "struct NFTMarketplace.ListedToken[]",
          "name": "",
          "type": "tuple[]"
        }
      ],
      "stateMutability": "view",
      "type": "function"
    },
    {
      "inputs": [
        {
          "internalType": "uint256",
          "name": "tokenId",
          "type": "uint256"
        }
      ],
      "name": "getApproved",
      "outputs": [
        {
          "internalType": "address",
          "name": "",
          "type": "address"
        }
      ],
      "stateMutability": "view",
      "type": "function"
    },
    {
      "inputs": [],
      "name": "getContractName",
      "outputs": [
        {
          "internalType": "string",
          "name": "",
          "type": "string"
        }
      ],
      "stateMutability": "pure",
      "type": "function"
    },
    {
      "inputs": [],
      "name": "getCurrentToken",
      "outputs": [
        {
          "internalType": "uint256",
          "name": "",
          "type": "uint256"
        }
      ],
      "stateMutability": "view",
      "type": "function"
    },
    {
      "inputs": [],
      "name": "getETHfeeUSD",
      "outputs": [
        {
          "internalType": "int256",
          "name": "",
          "type": "int256"
        }
      ],
      "stateMutability": "view",
      "type": "function"
    },
    {
      "inputs": [],
      "name": "getLatestIdToListedToken",
      "outputs": [
        {
          "components": [
            {
              "internalType": "uint256",
              "name": "tokenId",
              "type": "uint256"
            },
            {
              "internalType": "address payable",
              "name": "owner",
              "type": "address"
            },
            {
              "internalType": "address payable",
              "name": "seller",
              "type": "address"
            },
            {
              "internalType": "uint256",
              "name": "price",
              "type": "uint256"
            },
            {
              "internalType": "bool",
              "name": "currentlyListed",
              "type": "bool"
            }
          ],
          "internalType": "struct NFTMarketplace.ListedToken",
          "name": "",
          "type": "tuple"
        }
      ],
      "stateMutability": "view",
      "type": "function"
    },
    {
      "inputs": [],
      "name": "getListPrice",
      "outputs": [
        {
          "internalType": "uint256",
          "name": "",
          "type": "uint256"
        }
      ],
      "stateMutability": "view",
      "type": "function"
    },
    {
      "inputs": [
        {
          "internalType": "uint256",
          "name": "tokenId",
          "type": "uint256"
        }
      ],
      "name": "getListedTokenForId",
      "outputs": [
        {
          "components": [
            {
              "internalType": "uint256",
              "name": "tokenId",
              "type": "uint256"
            },
            {
              "internalType": "address payable",
              "name": "owner",
              "type": "address"
            },
            {
              "internalType": "address payable",
              "name": "seller",
              "type": "address"
            },
            {
              "internalType": "uint256",
              "name": "price",
              "type": "uint256"
            },
            {
              "internalType": "bool",
              "name": "currentlyListed",
              "type": "bool"
            }
          ],
          "internalType": "struct NFTMarketplace.ListedToken",
          "name": "",
          "type": "tuple"
        }
      ],
      "stateMutability": "view",
      "type": "function"
    },
    {
      "inputs": [],
      "name": "getMyNFTs",
      "outputs": [
        {
          "components": [
            {
              "internalType": "uint256",
              "name": "tokenId",
              "type": "uint256"
            },
            {
              "internalType": "address payable",
              "name": "owner",
              "type": "address"
            },
            {
              "internalType": "address payable",
              "name": "seller",
              "type": "address"
            },
            {
              "internalType": "uint256",
              "name": "price",
              "type": "uint256"
            },
            {
              "internalType": "bool",
              "name": "currentlyListed",
              "type": "bool"
            }
          ],
          "internalType": "struct NFTMarketplace.ListedToken[]",
          "name": "",
          "type": "tuple[]"
        }
      ],
      "stateMutability": "view",
      "type": "function"
    },
    {
      "inputs": [
        {
          "internalType": "address",
          "name": "owner",
          "type": "address"
        },
        {
          "internalType": "address",
          "name": "operator",
          "type": "address"
        }
      ],
      "name": "isApprovedForAll",
      "outputs": [
        {
          "internalType": "bool",
          "name": "",
          "type": "bool"
        }
      ],
      "stateMutability": "view",
      "type": "function"
    },
    {
      "inputs": [],
      "name": "name",
      "outputs": [
        {
          "internalType": "string",
          "name": "",
          "type": "string"
        }
      ],
      "stateMutability": "view",
      "type": "function"
    },
    {
      "inputs": [
        {
          "internalType": "uint256",
          "name": "tokenId",
          "type": "uint256"
        }
      ],
      "name": "ownerOf",
      "outputs": [
        {
          "internalType": "address",
          "name": "",
          "type": "address"
        }
      ],
      "stateMutability": "view",
      "type": "function"
    },
    {
      "inputs": [
        {
          "internalType": "address",
          "name": "from",
          "type": "address"
        },
        {
          "internalType": "address",
          "name": "to",
          "type": "address"
        },
        {
          "internalType": "uint256",
          "name": "tokenId",
          "type": "uint256"
        }
      ],
      "name": "safeTransferFrom",
      "outputs": [],
      "stateMutability": "nonpayable",
      "type": "function"
    },
    {
      "inputs": [
        {
          "internalType": "address",
          "name": "from",
          "type": "address"
        },
        {
          "internalType": "address",
          "name": "to",
          "type": "address"
        },
        {
          "internalType": "uint256",
          "name": "tokenId",
          "type": "uint256"
        },
        {
          "internalType": "bytes",
          "name": "data",
          "type": "bytes"
        }
      ],
      "name": "safeTransferFrom",
      "outputs": [],
      "stateMutability": "nonpayable",
      "type": "function"
    },
    {
      "inputs": [
        {
          "internalType": "address",
          "name": "operator",
          "type": "address"
        },
        {
          "internalType": "bool",
          "name": "approved",
          "type": "bool"
        }
      ],
      "name": "setApprovalForAll",
      "outputs": [],
      "stateMutability": "nonpayable",
      "type": "function"
    },
    {
      "inputs": [
        {
          "internalType": "bytes4",
          "name": "interfaceId",
          "type": "bytes4"
        }
      ],
      "name": "supportsInterface",
      "outputs": [
        {
          "internalType": "bool",
          "name": "",
          "type": "bool"
        }
      ],
      "stateMutability": "view",
      "type": "function"
    },
    {
      "inputs": [],
      "name": "symbol",
      "outputs": [
        {
          "internalType": "string",
          "name": "",
          "type": "string"
        }
      ],
      "stateMutability": "view",
      "type": "function"
    },
    {
      "inputs": [
        {
          "internalType": "uint256",
          "name": "tokenId",
          "type": "uint256"
        }
      ],
      "name": "tokenURI",
      "outputs": [
        {
          "internalType": "string",
          "name": "",
          "type": "string"
        }
      ],
      "stateMutability": "view",
      "type": "function"
    },
    {
      "inputs": [
        {
          "internalType": "address",
          "name": "from",
          "type": "address"
        },
        {
          "internalType": "address",
          "name": "to",
          "type": "address"
        },
        {
          "internalType": "uint256",
          "name": "tokenId",
          "type": "uint256"
        }
      ],
      "name": "transferFrom",
      "outputs": [],
      "stateMutability": "nonpayable",
      "type": "function"
    }
  ],
  "bytecode": "0x6080604052662386f26fc10000600a553480156200001c57600080fd5b50604080518082018252600e81526d4e46544d61726b6574706c61636560901b6020808301918252835180850190945260048452634e46544d60e01b9084015281519192916200006f91600091620000ec565b50805162000085906001906020840190620000ec565b5050600980546001600160a01b0319163317905550604051620000a8906200017b565b604051809103906000f080158015620000c5573d6000803e3d6000fd5b50600b80546001600160a01b0319166001600160a01b0392909216919091179055620001dd565b828054620000fa90620001a0565b90600052602060002090601f0160209004810192826200011e576000855562000169565b82601f106200013957805160ff191683800117855562000169565b8280016001018555821562000169579182015b82811115620001695782518255916020019190600101906200014c565b506200017792915062000189565b5090565b61021380620023c683390190565b5b808211156200017757600081556001016200018a565b600181811c90821680620001b557607f821691505b60208210811415620001d757634e487b7160e01b600052602260045260246000fd5b50919050565b6121d980620001ed6000396000f3fe6080604052600436106101405760003560e01c80638e264590116100b6578063d1a88ae51161006f578063d1a88ae51461037f578063d92c83fd14610394578063e0391b09146103a9578063e985e9c5146103be578063ef2d174614610407578063f5f5ba721461041c57600080fd5b80638e264590146102ca57806395d89b41146102f75780639b1225c41461030c578063a22cb4651461031f578063b88d4fde1461033f578063c87b56dd1461035f57600080fd5b806342842e0e1161010857806342842e0e14610216578063629cb2e4146102365780636352211e1461025857806368f1945f1461027857806370a082311461029757806372b3b620146102b757600080fd5b806301ffc9a71461014557806306fdde031461017a578063081812fc1461019c578063095ea7b3146101d457806323b872dd146101f6575b600080fd5b34801561015157600080fd5b50610165610160366004611d59565b610453565b60405190151581526020015b60405180910390f35b34801561018657600080fd5b5061018f61047e565b6040516101719190611f3d565b3480156101a857600080fd5b506101bc6101b7366004611dff565b610510565b6040516001600160a01b039091168152602001610171565b3480156101e057600080fd5b506101f46101ef366004611d30565b610537565b005b34801561020257600080fd5b506101f4610211366004611c42565b610652565b34801561022257600080fd5b506101f4610231366004611c42565b610683565b34801561024257600080fd5b5061024b61069e565b6040516101719190611eef565b34801561026457600080fd5b506101bc610273366004611dff565b6108e1565b34801561028457600080fd5b50600a545b604051908152602001610171565b3480156102a357600080fd5b506102896102b2366004611bf6565b610941565b6102896102c5366004611da9565b6109c7565b3480156102d657600080fd5b506102ea6102e5366004611dff565b610a09565b6040516101719190612034565b34801561030357600080fd5b5061018f610a73565b6101f461031a366004611dff565b610a82565b34801561032b57600080fd5b506101f461033a366004611cf6565b610ba1565b34801561034b57600080fd5b506101f461035a366004611c7d565b610bb0565b34801561036b57600080fd5b5061018f61037a366004611dff565b610be8565b34801561038b57600080fd5b506102ea610cf9565b3480156103a057600080fd5b50610289610d70565b3480156103b557600080fd5b5061024b610df2565b3480156103ca57600080fd5b506101656103d9366004611c10565b6001600160a01b03918216600090815260056020908152604080832093909416825291909152205460ff1690565b34801561041357600080fd5b50610289610f38565b34801561042857600080fd5b5060408051808201909152600e81526d4e46544d61726b6574706c61636560901b602082015261018f565b60006001600160e01b03198216632483248360e11b1480610478575061047882610f43565b92915050565b60606000805461048d90612086565b80601f01602080910402602001604051908101604052809291908181526020018280546104b990612086565b80156105065780601f106104db57610100808354040283529160200191610506565b820191906000526020600020905b8154815290600101906020018083116104e957829003601f168201915b5050505050905090565b600061051b82610f93565b506000908152600460205260409020546001600160a01b031690565b6000610542826108e1565b9050806001600160a01b0316836001600160a01b031614156105b55760405162461bcd60e51b815260206004820152602160248201527f4552433732313a20617070726f76616c20746f2063757272656e74206f776e656044820152603960f91b60648201526084015b60405180910390fd5b336001600160a01b03821614806105d157506105d181336103d9565b6106435760405162461bcd60e51b815260206004820152603d60248201527f4552433732313a20617070726f76652063616c6c6572206973206e6f7420746f60448201527f6b656e206f776e6572206f7220617070726f76656420666f7220616c6c00000060648201526084016105ac565b61064d8383610ff5565b505050565b61065c3382611063565b6106785760405162461bcd60e51b81526004016105ac90611f50565b61064d8383836110e1565b61064d83838360405180602001604052806000815250610bb0565b606060006106ab60075490565b905060008080805b848110156107435733600d60006106cb846001612042565b81526020810191909152604001600020600101546001600160a01b0316148061071e575033600d60006106ff846001612042565b81526020810191909152604001600020600201546001600160a01b0316145b156107315761072e600185612042565b93505b8061073b816120c1565b9150506106b3565b5060008367ffffffffffffffff81111561076d57634e487b7160e01b600052604160045260246000fd5b6040519080825280602002602001820160405280156107a657816020015b610793611a9d565b81526020019060019003908161078b5790505b50905060005b858110156108d75733600d60006107c4846001612042565b81526020810191909152604001600020600101546001600160a01b03161480610817575033600d60006107f8846001612042565b81526020810191909152604001600020600201546001600160a01b0316145b156108c557610827816001612042565b6000818152600d6020908152604091829020825160a0810184528154815260018201546001600160a01b039081169382019390935260028201549092169282019290925260038201546060820152600482015460ff1615156080820152845192955090918490879081106108ab57634e487b7160e01b600052603260045260246000fd5b60209081029190910101526108c1600186612042565b9450505b806108cf816120c1565b9150506107ac565b5095945050505050565b6000818152600260205260408120546001600160a01b0316806104785760405162461bcd60e51b8152602060048201526018602482015277115490cdcc8c4e881a5b9d985b1a59081d1bdad95b88125160421b60448201526064016105ac565b60006001600160a01b0382166109ab5760405162461bcd60e51b815260206004820152602960248201527f4552433732313a2061646472657373207a65726f206973206e6f7420612076616044820152683634b21037bbb732b960b91b60648201526084016105ac565b506001600160a01b031660009081526003602052604090205490565b60006109d7600780546001019055565b60006109e260075490565b90506109ee3382611245565b6109f8818561125f565b610a028184611331565b9392505050565b610a11611a9d565b506000908152600d6020908152604091829020825160a0810184528154815260018201546001600160a01b03908116938201939093526002820154909216928201929092526003820154606082015260049091015460ff161515608082015290565b60606001805461048d90612086565b6000818152600d60205260408120600381015460029091015490916001600160a01b0390911690610ab161147a565b905080348414610ad45760405162461bcd60e51b81526004016105ac9190611f3d565b506000848152600d6020526040902060048101805460ff1916600117905560020180546001600160a01b03191633179055610b13600880546001019055565b610b1e3033866110e1565b610b283085610537565b600954600a546040516001600160a01b039092169181156108fc0291906000818181858888f19350505050158015610b64573d6000803e3d6000fd5b506040516001600160a01b038316903480156108fc02916000818181858888f19350505050158015610b9a573d6000803e3d6000fd5b5050505050565b610bac33838361149a565b5050565b610bba3383611063565b610bd65760405162461bcd60e51b81526004016105ac90611f50565b610be284848484611569565b50505050565b6060610bf382610f93565b60008281526006602052604081208054610c0c90612086565b80601f0160208091040260200160405190810160405280929190818152602001828054610c3890612086565b8015610c855780601f10610c5a57610100808354040283529160200191610c85565b820191906000526020600020905b815481529060010190602001808311610c6857829003601f168201915b505050505090506000610ca360408051602081019091526000815290565b9050805160001415610cb6575092915050565b815115610ce8578082604051602001610cd0929190611e83565b60405160208183030381529060405292505050919050565b610cf18461159c565b949350505050565b610d01611a9d565b6000610d0c60075490565b6000908152600d6020908152604091829020825160a0810184528154815260018201546001600160a01b03908116938201939093526002820154909216928201929092526003820154606082015260049091015460ff161515608082015292915050565b600b5460408051634f0e43b960e01b815290516000926001600160a01b031691634f0e43b9916004808301926020929190829003018186803b158015610db557600080fd5b505afa158015610dc9573d6000803e3d6000fd5b505050506040513d601f19601f82011682018060405250810190610ded9190611d91565b905090565b60606000610dff60075490565b905060008167ffffffffffffffff811115610e2a57634e487b7160e01b600052604160045260246000fd5b604051908082528060200260200182016040528015610e6357816020015b610e50611a9d565b815260200190600190039081610e485790505b509050600080805b84811015610f2e57610e7e816001612042565b6000818152600d6020908152604091829020825160a0810184528154815260018201546001600160a01b039081169382019390935260028201549092169282019290925260038201546060820152600482015460ff161515608082015286519294509091869086908110610f0257634e487b7160e01b600052603260045260246000fd5b6020908102919091010152610f18600185612042565b9350508080610f26906120c1565b915050610e6b565b5091949350505050565b6000610ded60075490565b60006001600160e01b031982166380ac58cd60e01b1480610f7457506001600160e01b03198216635b5e139f60e01b145b8061047857506301ffc9a760e01b6001600160e01b0319831614610478565b6000818152600260205260409020546001600160a01b0316610ff25760405162461bcd60e51b8152602060048201526018602482015277115490cdcc8c4e881a5b9d985b1a59081d1bdad95b88125160421b60448201526064016105ac565b50565b600081815260046020526040902080546001600160a01b0319166001600160a01b038416908117909155819061102a826108e1565b6001600160a01b03167f8c5be1e5ebec7d5bd14f71427d1e84f3dd0314c0f7b2291e5b200ac8c7c3b92560405160405180910390a45050565b60008061106f836108e1565b9050806001600160a01b0316846001600160a01b031614806110b657506001600160a01b0380821660009081526005602090815260408083209388168352929052205460ff165b80610cf15750836001600160a01b03166110cf84610510565b6001600160a01b031614949350505050565b826001600160a01b03166110f4826108e1565b6001600160a01b03161461111a5760405162461bcd60e51b81526004016105ac90611fef565b6001600160a01b03821661117c5760405162461bcd60e51b8152602060048201526024808201527f4552433732313a207472616e7366657220746f20746865207a65726f206164646044820152637265737360e01b60648201526084016105ac565b826001600160a01b031661118f826108e1565b6001600160a01b0316146111b55760405162461bcd60e51b81526004016105ac90611fef565b600081815260046020908152604080832080546001600160a01b03199081169091556001600160a01b0387811680865260038552838620805460001901905590871680865283862080546001019055868652600290945282852080549092168417909155905184937fddf252ad1be2c89b69c2b068fc378daa952ba7f163c4a11628f55a4df523b3ef91a4505050565b610bac82826040518060200160405280600081525061160f565b6000828152600260205260409020546001600160a01b03166112da5760405162461bcd60e51b815260206004820152602e60248201527f45524337323155524953746f726167653a2055524920736574206f66206e6f6e60448201526d32bc34b9ba32b73a103a37b5b2b760911b60648201526084016105ac565b600082815260066020908152604090912082516112f992840190611acb565b506040518281527ff8e1a15aba9398e019f0b49df1a4fde98ee17ae345cb5f6b5e2c27f5033e8ce79060200160405180910390a15050565b600061133b611642565b90506000611347611662565b9050600a543414829061136d5760405162461bcd60e51b81526004016105ac9190611f3d565b50808361138d5760405162461bcd60e51b81526004016105ac9190611f3d565b506040805160a08101825285815230602080830182815233848601818152606086018a815260016080880181815260008e8152600d9097529890952096518755925193860180546001600160a01b039586166001600160a01b03199182161790915590516002870180549190951691161790925551600384015592516004909201805492151560ff199093169290921790915561142b9190866110e1565b604080513081523360208201529081018490526001606082015284907f9339409317fd01fabff48b703019016f49159bacc801ae872d2ca637d226e4c09060800160405180910390a250505050565b606060405180606001604052806040815260200161211f60409139905090565b816001600160a01b0316836001600160a01b031614156114fc5760405162461bcd60e51b815260206004820152601960248201527f4552433732313a20617070726f766520746f2063616c6c65720000000000000060448201526064016105ac565b6001600160a01b03838116600081815260056020908152604080832094871680845294825291829020805460ff191686151590811790915591519182527f17307eab39ab6107e8899845ad3d59bd9653f200f220920489ca2b5937696c31910160405180910390a3505050565b6115748484846110e1565b61158084848484611682565b610be25760405162461bcd60e51b81526004016105ac90611f9d565b60606115a782610f93565b60006115be60408051602081019091526000815290565b905060008151116115de5760405180602001604052806000815250610a02565b806115e88461178f565b6040516020016115f9929190611e83565b6040516020818303038152906040529392505050565b611619838361183a565b6116266000848484611682565b61064d5760405162461bcd60e51b81526004016105ac90611f9d565b606060405180606001604052806023815260200161215f60239139905090565b606060405180606001604052806022815260200161218260229139905090565b60006001600160a01b0384163b1561178457604051630a85bd0160e11b81526001600160a01b0385169063150b7a02906116c6903390899088908890600401611eb2565b602060405180830381600087803b1580156116e057600080fd5b505af1925050508015611710575060408051601f3d908101601f1916820190925261170d91810190611d75565b60015b61176a573d80801561173e576040519150601f19603f3d011682016040523d82523d6000602084013e611743565b606091505b5080516117625760405162461bcd60e51b81526004016105ac90611f9d565b805181602001fd5b6001600160e01b031916630a85bd0160e11b149050610cf1565b506001949350505050565b6060600061179c836119c5565b600101905060008167ffffffffffffffff8111156117ca57634e487b7160e01b600052604160045260246000fd5b6040519080825280601f01601f1916602001820160405280156117f4576020820181803683370190505b5090508181016020015b600019016f181899199a1a9b1b9c1cb0b131b232b360811b600a86061a8153600a850494508461182d57611832565b6117fe565b509392505050565b6001600160a01b0382166118905760405162461bcd60e51b815260206004820181905260248201527f4552433732313a206d696e7420746f20746865207a65726f206164647265737360448201526064016105ac565b6000818152600260205260409020546001600160a01b0316156118f55760405162461bcd60e51b815260206004820152601c60248201527f4552433732313a20746f6b656e20616c7265616479206d696e7465640000000060448201526064016105ac565b6000818152600260205260409020546001600160a01b03161561195a5760405162461bcd60e51b815260206004820152601c60248201527f4552433732313a20746f6b656e20616c7265616479206d696e7465640000000060448201526064016105ac565b6001600160a01b038216600081815260036020908152604080832080546001019055848352600290915280822080546001600160a01b0319168417905551839291907fddf252ad1be2c89b69c2b068fc378daa952ba7f163c4a11628f55a4df523b3ef908290a45050565b60008072184f03e93ff9f4daa797ed6e38ed64bf6a1f0160401b8310611a045772184f03e93ff9f4daa797ed6e38ed64bf6a1f0160401b830492506040015b6d04ee2d6d415b85acef81000000008310611a30576d04ee2d6d415b85acef8100000000830492506020015b662386f26fc100008310611a4e57662386f26fc10000830492506010015b6305f5e1008310611a66576305f5e100830492506008015b6127108310611a7a57612710830492506004015b60648310611a8c576064830492506002015b600a83106104785760010192915050565b6040805160a08101825260008082526020820181905291810182905260608101829052608081019190915290565b828054611ad790612086565b90600052602060002090601f016020900481019282611af95760008555611b3f565b82601f10611b1257805160ff1916838001178555611b3f565b82800160010185558215611b3f579182015b82811115611b3f578251825591602001919060010190611b24565b50611b4b929150611b4f565b5090565b5b80821115611b4b5760008155600101611b50565b600067ffffffffffffffff80841115611b7f57611b7f6120f2565b604051601f8501601f19908116603f01168101908282118183101715611ba757611ba76120f2565b81604052809350858152868686011115611bc057600080fd5b858560208301376000602087830101525050509392505050565b80356001600160a01b0381168114611bf157600080fd5b919050565b600060208284031215611c07578081fd5b610a0282611bda565b60008060408385031215611c22578081fd5b611c2b83611bda565b9150611c3960208401611bda565b90509250929050565b600080600060608486031215611c56578081fd5b611c5f84611bda565b9250611c6d60208501611bda565b9150604084013590509250925092565b60008060008060808587031215611c92578081fd5b611c9b85611bda565b9350611ca960208601611bda565b925060408501359150606085013567ffffffffffffffff811115611ccb578182fd5b8501601f81018713611cdb578182fd5b611cea87823560208401611b64565b91505092959194509250565b60008060408385031215611d08578182fd5b611d1183611bda565b915060208301358015158114611d25578182fd5b809150509250929050565b60008060408385031215611d42578182fd5b611d4b83611bda565b946020939093013593505050565b600060208284031215611d6a578081fd5b8135610a0281612108565b600060208284031215611d86578081fd5b8151610a0281612108565b600060208284031215611da2578081fd5b5051919050565b60008060408385031215611dbb578182fd5b823567ffffffffffffffff811115611dd1578283fd5b8301601f81018513611de1578283fd5b611df085823560208401611b64565b95602094909401359450505050565b600060208284031215611e10578081fd5b5035919050565b60008151808452611e2f81602086016020860161205a565b601f01601f19169290920160200192915050565b805182526020808201516001600160a01b039081169184019190915260408083015190911690830152606080820151908301526080908101511515910152565b60008351611e9581846020880161205a565b835190830190611ea981836020880161205a565b01949350505050565b6001600160a01b0385811682528416602082015260408101839052608060608201819052600090611ee590830184611e17565b9695505050505050565b6020808252825182820181905260009190848201906040850190845b81811015611f3157611f1e838551611e43565b9284019260a09290920191600101611f0b565b50909695505050505050565b602081526000610a026020830184611e17565b6020808252602d908201527f4552433732313a2063616c6c6572206973206e6f7420746f6b656e206f776e6560408201526c1c881bdc88185c1c1c9bdd9959609a1b606082015260800190565b60208082526032908201527f4552433732313a207472616e7366657220746f206e6f6e20455243373231526560408201527131b2b4bb32b91034b6b83632b6b2b73a32b960711b606082015260800190565b60208082526025908201527f4552433732313a207472616e736665722066726f6d20696e636f72726563742060408201526437bbb732b960d91b606082015260800190565b60a081016104788284611e43565b60008219821115612055576120556120dc565b500190565b60005b8381101561207557818101518382015260200161205d565b83811115610be25750506000910152565b600181811c9082168061209a57607f821691505b602082108114156120bb57634e487b7160e01b600052602260045260246000fd5b50919050565b60006000198214156120d5576120d56120dc565b5060010190565b634e487b7160e01b600052601160045260246000fd5b634e487b7160e01b600052604160045260246000fd5b6001600160e01b031981168114610ff257600080fdfe506c65617365207375626d6974207468652061736b696e6720707269636520696e206f7264657220746f20636f6d706c65746520746865207075726368617365486f706566756c6c792073656e64696e672074686520636f72726563742070726963654d616b652073757265207468652070726963652069736e2774206e65676174697665a2646970667358221220397a8ff04f7233e5a65dd6bfea6d3c7d58447e9b9d61fa4290d69d5b44cdf21864736f6c63430008040033608060405234801561001057600080fd5b50600080546001600160a01b03191673694aa1769357215de4fac081bf1f309adc3253061790556101cd806100466000396000f3fe608060405234801561001057600080fd5b506004361061002b5760003560e01c80634f0e43b914610030575b600080fd5b61003861004a565b60405190815260200160405180910390f35b6000805460408051633fabe5a360e21b8152905183926001600160a01b03169163feaf968c9160048083019260a0929190829003018186803b15801561008f57600080fd5b505afa1580156100a3573d6000803e3d6000fd5b505050506040513d601f19601f820116820180604052508101906100c79190610102565b5050509150506305f5e100816100dd9190610151565b91505090565b805169ffffffffffffffffffff811681146100fd57600080fd5b919050565b600080600080600060a08688031215610119578081fd5b610122866100e3565b9450602086015193506040860151925060608601519150610145608087016100e3565b90509295509295909350565b60008261016c57634e487b7160e01b81526012600452602481fd5b600160ff1b82146000198414161561019257634e487b7160e01b81526011600452602481fd5b50059056fea2646970667358221220b3e255425c6b33e88670f165f068d1973b078ac1472e26cc09b0cb80c5c68d6764736f6c63430008040033",
  "linkReferences": {},
  "deployedLinkReferences": {}
}