{
  "_format": "hh-sol-artifact-1",
  "contractName": "USD_transformer",
  "sourceName": "contracts/NFTMarketplace.sol",
  "abi": [
    {
      "inputs": [],
      "stateMutability": "nonpayable",
      "type": "constructor"
    },
    {
      "inputs": [],
      "name": "get_ETH_in_USD",
      "outputs": [
        {
          "internalType": "int256",
          "name": "",
          "type": "int256"
        }
      ],
      "stateMutability": "view",
      "type": "function"
    }
  ],
  "bytecode": "0x608060405234801561001057600080fd5b50600080546001600160a01b03191673694aa1769357215de4fac081bf1f309adc3253061790556101cd806100466000396000f3fe608060405234801561001057600080fd5b506004361061002b5760003560e01c80634f0e43b914610030575b600080fd5b61003861004a565b60405190815260200160405180910390f35b6000805460408051633fabe5a360e21b8152905183926001600160a01b03169163feaf968c9160048083019260a0929190829003018186803b15801561008f57600080fd5b505afa1580156100a3573d6000803e3d6000fd5b505050506040513d601f19601f820116820180604052508101906100c79190610102565b5050509150506305f5e100816100dd9190610151565b91505090565b805169ffffffffffffffffffff811681146100fd57600080fd5b919050565b600080600080600060a08688031215610119578081fd5b610122866100e3565b9450602086015193506040860151925060608601519150610145608087016100e3565b90509295509295909350565b60008261016c57634e487b7160e01b81526012600452602481fd5b600160ff1b82146000198414161561019257634e487b7160e01b81526011600452602481fd5b50059056fea2646970667358221220b3e255425c6b33e88670f165f068d1973b078ac1472e26cc09b0cb80c5c68d6764736f6c63430008040033",
  "linkReferences": {},
  "deployedLinkReferences": {}
}